:1000000012C019C018C017C016C015C014C013C044
:1000100012C011C010C00FC00EC00DC00CC00BC06C
:100020000AC009C008C011241FBECFE5D4E0DEBF5E
:10003000CDBF02D024C0E4CF83E087BBA5989D9BB1
:1000400019C088B3836088BB2FE38BED92E0215009
:1000500080409040E1F700C00000C0982FEB8EE890
:1000600095E1215080409040E1F700C00000C19828
:100070009D99FECF2AE12A95F1F700C0E0CFF894D0
:02008000FFCFB0
:00000001FF
