S01A00006669726D776172655F6C617365725F7461672E737265639C
S11300000C942A000C94F4000C9403010C94470003
S11300100C9447000C9447000C9447000C94470040
S11300200C9447000C9447000C9447000C94470030
S11300300C9447000C9447000C9447000C94470020
S11300400C9447000C9447000C9447000C94470010
S11300500C94470011241FBECFE5D8E0DEBFCDBF0E
S113006010E0A0E6B0E0E8E6F4E002C005900D92EE
S1130070A43CB107D9F720E0A4ECB0E001C01D9284
S1130080A73CB207E1F70E941E010C9432020C94C3
S1130090000080FF02C0AC9A01C0AC9881FF02C08E
S11300A0AD9A01C0AD9882FF02C0AE9A01C0AE986D
S11300B083FF02C0AF9A0895AF980895CF93C82FD5
S11300C0A998AB9882958F700E944900AB9A8FECE7
S11300D097E00197F1F700C00000AB988FEC97E030
S11300E00197F1F700C000008C2F8F700E94490027
S11300F0AB9A8FEC97E00197F1F700C00000AB9842
S11301008FE99FE00197F1F700C00000CF910895B7
S113011081E00E945E00089580E00E9449008FE91A
S11301209CE80197F1F700C0000083E30E945E00A1
S113013082E30E945E0088E20E945E0088E20E94E0
S11301405E0086E00E945E008CE00E945E0081E01A
S11301500E945E000895CF93C82FA99AAB98829508
S11301608F700E944900AB9A87EC90E00197F1F7F9
S113017000C00000AB9887EC90E00197F1F700C055
S113018000008C2F8F700E944900AB9A87EC90E09E
S11301900197F1F700C00000AB9887EC90E001975D
S11301A0F1F700C00000CF910895CF93DF93EC01E5
S11301B08881882331F021960E94AB0089918111B6
S11301C0FBCFDF91CF910895CF93DF93EC0121967C
S11301D0FC018081882329F00E94AB008991811160
S11301E0FBCFDF91CF9108951F920F920FB60F921C
S11301F011248F9382E08093C6008F910F900FBEDD
S11302000F901F9018951F920F920FB60F92112402
S11302102F938F939F93919A2FEF84E39CE0215027
S113022080409040E1F700C0000091989F918F9129
S11302302F910F900FBE0F901F90189581E390E0BF
S113024023EB21BB2EEF24BB21E027BB979825E0AD
S113025023BF22EA2FBD2AE12EBD24E630E037BDBC
S113026026BD9BBD8ABD99BD88BD0E948C008BB7FD
S1130270806C8BBF85B78F6085BF80EC8ABF81E8B7
S11302800E945E0081E690E00E94D5002FEF89E68F
S113029098E1215080409040E1F700C000000E94A6
S11302A0880080E80E945E0080E790E00E94D5000C
S11302B0C99B39C0CA9918C080EC0E945E0081E8CD
S11302C090E00E94D5002FEF82E597E02150804016
S11302D09040E1F700C0000080EC0E945E008EE8D0
S11302E090E00E94D50019C0C89917C080EC0E9404
S11302F05E0081E890E00E94D5002FEF82E597E050
S1130300215080409040E1F700C0000080EC0E9442
S11303105E008EE890E00E94D5002AE12A95F1F76C
S113032000C0C999C7CF8FEF90E722E08150904079
S11303302040E1F700C00000C99BFECF8FEF90E79B
S113034022E0815090402040E1F700C000000E946C
S1130350880080E80E945E008BE990E00E94D5004E
S113036080EC0E945E008BEA90E00E94E400979A81
S11303707894C1E08091C6008230A9F59798F894EA
S113038080EC0E945E0082EB90E00E94E400909A70
S1130390C09A8FE79AE126E0815090402040E1F72F
S11303A000C00000C0988FE79AE126E08150904099
S11303B02040E1F700C0000090988FE79EEE26E30E
S11303C0815090402040E1F700C0000080EC0E9482
S11303D05E008BEB90E00E94E4001092C60080EC7B
S11303E08ABF7894979A8AE18A95F1F700C0809140
S11303F0C4009091C50001969093C5008093C400F9
S11304008C3B924008F4B6CF1092C5001092C40001
S113041080916000882399F08AB59BB503969BBDB3
S11304208ABD88B599B5039799BD88BD8AB59BB532
S11304308236910508F49ECF109260009BCF8AB556
S11304409BB503979BBD8ABD88B599B5039699BDA5
S113045088BD88B599B58236910508F48BCFC093D1
S10B0460600088CFF894FFCF7F
S1130468014C41534552205441472047414D4500D2
S11304785072657373204F4B20746F20504C415950
S1130488004E6F204F7065726174696F6E00202092
S1130498202020202020202020200047414D4520D6
S11304A849532052554E4E494E4700504C41592EFF
S11304B82E0044495341424C454400504C41592E66
S10704C82E202000BE
S9030000FC
