S01A00006669726D776172655F6C617365725F7461672E737265639C
S11300000C942A000C9480010C948F010C944700EA
S11300100C9447000C9447000C9447000C94470040
S11300200C9447000C9447000C9447000C94470030
S11300300C9447000C9447000C9447000C94470020
S11300400C9447000C9447000C9447000C94470010
S11300500C94470011241FBECFE5D8E0DEBFCDBF0E
S113006010E0A0E6B0E0E6EDF8E002C005900D92E5
S1130070A03DB107D9F720E0A0EDB0E001C01D928A
S1130080A53DB207E1F70E949E010C9469040C940B
S1130090000080FF02C0AC9A01C0AC9881FF02C08E
S11300A0AD9A01C0AD9882FF02C0AE9A01C0AE986D
S11300B083FF02C0AF9A0895AF980895CF93C82FD5
S11300C0A998AB9882958F700E944900AB9A8FECE7
S11300D097E00197F1F700C00000AB988FEC97E030
S11300E00197F1F700C000008C2F8F700E94490027
S11300F0AB9A8FEC97E00197F1F700C00000AB9842
S11301008FE99FE00197F1F700C00000CF910895B7
S113011081E00E945E00089580E00E9449008FE91A
S11301209CE80197F1F700C0000083E30E945E00A1
S113013082E30E945E0088E20E945E0088E20E94E0
S11301405E0086E00E945E008CE00E945E0081E01A
S11301500E945E000895CF93C82FA99AAB98829508
S11301608F700E944900AB9A87EC90E00197F1F7F9
S113017000C00000AB9887EC90E00197F1F700C055
S113018000008C2F8F700E944900AB9A87EC90E09E
S11301900197F1F700C00000AB9887EC90E001975D
S11301A0F1F700C00000CF910895CF93DF93EC01E5
S11301B08881882331F021960E94AB0089918111B6
S11301C0FBCFDF91CF910895CF93DF93EC0121967C
S11301D0FC018081882329F00E94AB008991811160
S11301E0FBCFDF91CF9108954F925F926F927F92F0
S11301F08F929F92AF92BF92EF92FF920F931F93B1
S1130200CF93DF93CDB7DEB72A970FB6F894DEBF4E
S11302100FBECDBF4B015C017A010E94C4039F77DE
S11302200E949103FE0131962AE0DF011D922A9576
S1130230E9F76115710581059105D1F08E01055F1E
S11302401F4F0F2EFAE04F2E512C612C712CF02DE4
S1130250A30192010E942804F80162938F01622F86
S1130260732F842F952F611571058105910581F7F1
S1130270FFEFEF16FF0669F4898181110FC0FE01BB
S1130280329600E010E00F5F1F4F81918823D9F36D
S113029007C00AE010E00E191F0902C000E010E0D8
S11302A0BB201CF48DE20E94AB000A3011059CF4C3
S11302B081E090E08C0F9D1F080F191F7E019BE0C9
S11302C0E90EF11CD8018D918D01805D0E94AB0077
S11302D00E151F05B9F72A960FB6F894DEBF0FBEA8
S11302E0CDBFDF91CF911F910F91FF90EF90BF9001
S11302F0AF909F908F907F906F905F904F900895F4
S11303001F920F920FB60F9211248F9382E0809365
S1130310D4008F910F900FBE0F901F9018951F92CD
S11303200F920FB60F9211248F9382E08093D40022
S11303308F910F900FBE0F901F90189581E390E05E
S113034020EB21BB2EEF24BB41E047BB25E023BFBC
S113035022EA2FBD2AE12EBD24E630E037BD26BDBA
S11303609BBD8ABD99BD88BD8AE685BD43BD0E94FB
S11303708C008BB7806C8BBF84B784BF85B78F60CC
S113038085BF80EC8ABF81E80E945E0084E690E02D
S11303900E94D5002FEF89E698E1215080409040DB
S11303A0E1F700C000000E94880080E80E945E001F
S11303B083E790E00E94D5008AE80E945E00609185
S11303C0620070916300882777FD8095982F42E042
S11303D050E00E94F400A3C0CA9950C0809162000A
S11303E09091630001969093630080936200843639
S11303F0910504F180EC0E945E008EE790E00E947B
S1130400D5002FE78FE492E1215080409040E1F73E
S113041000C0000080EC0E945E008CE890E00E9426
S1130420D5008091620090916300019790936300DE
S1130430809362008AE80E945E006091620070917D
S11304406300882777FD8095982F42E050E00E9452
S1130450F4002FEF80E792E0215080409040E1F7D4
S113046000C00000CA9BFECF2FEF80E792E021502E
S113047080409040E1F700C0000051C0C8994FC0CF
S11304808091620090916300019790936300809340
S113049062001816190604F180EC0E945E008AE9D5
S11304A090E00E94D5002FE78FE492E12150804034
S11304B09040E1F700C0000080EC0E945E008CE8F0
S11304C090E00E94D50080916200909163000196B3
S11304D090936300809362008AE80E945E006091BA
S11304E0620070916300882777FD8095982F42E021
S11304F050E00E94F4002FEF80E792E0215080400A
S11305009040E1F700C00000C89BFECF2FEF80E7CA
S113051092E0215080409040E1F700C00000C9996A
S11305205BCF2FEF80E792E0215080409040E1F7CD
S113053000C00000C99BFECF2FEF80E792E021505E
S113054080409040E1F700C0000080E80E945E0017
S113055088EA90E00E94D50085E80E945E006091E0
S1130560620070916300882777FD8095982F42E0A0
S113057050E00E94F40088E80E945E0060916200EE
S113058070916300882777FD8095982F42E050E0B2
S11305900E94F40080EC0E945E0089EB90E00E94CF
S11305A0E4007894D0E4C1E08091D400823009F072
S11305B03FC0F894809162009091630001979093FA
S11305C063008093620085E80E945E00609162008F
S11305D070916300882777FD8095982F42E050E062
S11305E00E94F40080EC0E945E0082EC90E00E9485
S11305F0E400C09A2FE78AE196E0215080409040C1
S1130600E1F700C00000C0982FE789EB9AE221507F
S113061080409040E1F700C0000080EC0E945E0042
S113062089EB90E00E94E4001092D400DABF789441
S113063080916200909163001816190664F0C09AC4
S11306400E94880080E80E945E008BEC90E00E948B
S1130650D500F894FFCF2AE12A95F1F700C08091E4
S1130660D2009091D30001968C3B22E0920728F4AB
S11306709093D3008093D2002BC01092D300109299
S1130680D20080916100882391F08AB59BB50196D0
S11306909BBD8ABD88B599B5019799BD88BD8AB5BA
S11306A09BB582369105A0F01092610011C08AB505
S11306B09BB501979BBD8ABD88B599B5019699BD37
S11306C088BD88B599B58236910510F0C093610054
S11306D08091D0009091D10001969093D1008093A5
S11306E0D0008039914008F45FCF1092D10010926D
S11306F0D00080916000882351F083B58B5F83BD67
S113070083B58A3F08F450CF109260004DCF83B573
S1130710835083BD83B5863008F046CFC093600014
S113072043CF04D06894B1118DC0089570D088F07F
S11307309F5790F0B92F9927B751A0F0D1F0660FC9
S1130740771F881F991F1AF0BA95C9F712C0B130E4
S113075081F077D0B1E0089574C0672F782F88278F
S1130760B85F39F0B93FCCF3869577956795B39523
S1130770D9F73EF490958095709561957F4F8F4F92
S11307809F4F0895E89409C097FB3EF49095809597
S1130790709561957F4F8F4F9F4F9923A9F0F92F43
S11307A096E9BB279395F695879577956795B795C1
S11307B0F111F8CFFAF4BB0F11F460FF1BC06F5FA7
S11307C07F4F8F4F9F4F16C0882311F096E911C0B9
S11307D0772321F09EE8872F762F05C0662371F0DA
S11307E096E8862F70E060E02AF09A95660F771FEE
S11307F0881FDAF7880F9695879597F9089557FD1E
S11308009058440F551F59F05F3F71F04795880F7A
S113081097FB991F61F09F3F79F087950895121611
S113082013061406551FF2CF4695F1DF08C01616BD
S113083017061806991FF1CF86957105610508946E
S11308400895E894BB2766277727CB0197F9089585
S1130850052E97FB1EF400940E943F0457FD07D019
S11308600E94470407FC03D04EF40C943F045095B7
S11308704095309521953F4F4F4F5F4F0895909588
S11308808095709561957F4F8F4F9F4F0895A1E29A
S11308901A2EAA1BBB1BFD010DC0AA1FBB1FEE1FF6
S11308A0FF1FA217B307E407F50720F0A21BB30B41
S11308B0E40BF50B661F771F881F991F1A9469F7BD
S11308C060957095809590959B01AC01BD01CF0119
S10908D00895F894FFCF27
S11308D6010105004C4153455220544147204741EC
S11308E64D4500534554204C4946453A20004D4158
S11308F658494D554D204C4556454C002020202046
S1130906202020202020202020004D494E494D55EE
S11309164D204C4556454C004C4946452020202F39
S1130926202020202020202000504C415920202027
S1130936200044495341424C454400444541440047
S9030000FC
