:1000000012C019C018C017C016C015C014C013C044
:1000100012C011C010C00FC00EC00DC00CC00BC06C
:100020000AC009C008C011241FBECFE5D4E0DEBF5E
:10003000CDBF02D028C0E4CF83E087BB82E88FBD6C
:100040008AE18EBD88E59BE197BD86BD8CEA9DE087
:100050009BBD8ABDC09A2FE38BED92E0215080407A
:100060009040E1F700C00000C0982FEF89E698E1CA
:10007000215080409040E1F700C000001FBC1EBC32
:0A008000C19817BAFFCFF894FFCF24
:00000001FF
