S01000006669726D776172652E73726563B7
S11300000C942A000C943F000C943F000C943F0085
S11300100C943F000C943F000C943F000C943F0060
S11300200C943F000C943F000C943F000C943F0050
S11300300C943F000C943F000C943F000C943F0040
S11300400C943F000C943F000C943F000C943F0030
S11300500C943F0011241FBECFE5D8E0DEBFCDBF16
S113006010E0A0E6B0E0ECE9F4E002C005900D92E7
S1130070A83DB107D9F70E9481000C944C020C945E
S11300800000DC01CB01880F991FAA1FBB1F880F3A
S1130090991FAA1FBB1F9C01AD01220F331F441FD0
S11300A0551F220F331F441F551F60E072E18AE77A
S11300B090E00E942A02CA01B901615071098109C4
S11300C091090E948A010E94C701272F332720BD6E
S11300D069B988E18AB986E880BD08955D9BFECF41
S11300E08CB90895CF93DF93EC018881882331F094
S11300F021960E946E0089918111FBCFDF91CF91EF
S113010008951ABA8FE087BB18BA8FEF84BB15BA6B
S113011060E478E380E090E00E94410080E0C0E089
S1130120D1E001C08D2FC89B16C08823E1F38FE175
S11301309EE40197F1F700C00000C99B06C080E669
S113014090E00E9472008C2FEECF86E690E00E9431
S113015072008C2FE8CFCA9B16C0882321F38FE14D
S11301609EE40197F1F700C00000CB9B06C08CE62B
S113017090E00E9472008C2FD6CF82E790E00E941C
S113018072008C2FD0CFCC9B16C0882361F28FE1F4
S11301909EE40197F1F700C00000CD9B06C088E7FC
S11301A090E00E9472008C2FBECF8EE790E00E94F8
S11301B072008C2FB8CFCE9B17C0882309F4B3CF1D
S11301C08FE19EE40197F1F700C00000CF9B06C0C9
S11301D084E890E00E9472008C2FA5CF8AE890E01A
S11301E00E9472008C2F9FCF9F9B17C0882309F415
S11301F09ACF8FE19EE40197F1F700C000009E9B27
S113020006C080E990E00E9472008C2F8CCF86E9B2
S113021090E00E9472008C2F86CF9D9B17C088238C
S113022009F481CF8FE19EE40197F1F700C000004B
S11302309C9B06C08CE990E00E9472008C2F73CFC7
S113024082EA90E00E9472008C2F6DCF9B9B17C0B6
S1130250882309F468CF8FE19EE40197F1F700C089
S113026000009A9B06C088EA90E00E9472008C2FDE
S11302705ACF8EEA90E00E9472008C2F54CF999B43
S113028017C0882309F44FCF8FE19EE40197F1F75B
S113029000C00000989B06C084EB90E00E947200AE
S11302A08C2F41CF8AEB90E00E9472008C2F3BCFC1
S11302B0B09B17C0882309F436CF8FE19EE40197E1
S11302C0F1F700C00000B19B06C080EC90E00E94F2
S11302D072008C2F28CF86EC90E00E9472008C2F45
S11302E022CFB29B1FCF882309F41DCF8FE19EE458
S11302F00197F1F700C00000B39B06C08CEC90E0BE
S11303000E9472008C2F0FCF82ED90E00E94720049
S11303108C2F09CFE89409C097FB3EF49095809503
S1130320709561957F4F8F4F9F4F9923A9F0F92FB7
S113033096E9BB279395F695879577956795B79535
S1130340F111F8CFFAF4BB0F11F460FF1BC06F5F1B
S11303507F4F8F4F9F4F16C0882311F096E911C02D
S1130360772321F09EE8872F762F05C0662371F04E
S113037096E8862F70E060E02AF09A95660F771F62
S1130380881FDAF7880F9695879597F9089541D0D5
S1130390A8F19E57A8F1985160F039F1983070F5A2
S11303A0092E9927660F771F881F991F0A94D1F782
S11303B01CC0BB27993F4CF4B111B1E0B62B672F99
S11303C0782F8827985FB1F708C086957795679549
S11303D0B79508F4B1609395C1F7BB0F30F411F4ED
S11303E060FF03C06F5F7F4F8F4F3EF49095809501
S11303F0709561957F4F8F4F9F4F0895689424C0E7
S113040022C057FD9058440F551F59F05F3F71F0BB
S11304104795880F97FB991F61F09F3F79F0879567
S11304200895121613061406551FF2CF4695F1DFF0
S113043008C0161617061806991FF1CF8695710580
S1130440610508940895E894BB2766277727CB01B4
S113045097F90895A1E21A2EAA1BBB1BFD010DC03A
S1130460AA1FBB1FEE1FFF1FA217B307E407F50760
S113047020F0A21BB30BE40BF50B661F771F881F3C
S1130480991F1A9469F760957095809590959B01D2
S10F0490AC01BD01CF010895F894FFCF2A
S113049C3131312B0D003131312D0D003131322BF5
S11304AC0D003131322D0D003131332B0D00313132
S11304BC332D0D003131342B0D003131342D0D0021
S11304CC3131352B0D003131352D0D003131362BB9
S11304DC0D003131362D0D003131372B0D003131FA
S11304EC372D0D003131382B0D003131382D0D00E5
S11304FC3131392B0D003131392D0D003132302B86
S10B050C0D003132302D0D0009
S9030000FC
