S01A00006669726D776172655F6C617365725F7461672E737265639C
S11300000C942A000C9480010C9447000C94470033
S11300100C9447000C9447000C9447000C94470040
S11300200C9447000C9447000C9447000C94470030
S11300300C9447000C9447000C9447000C94470020
S11300400C9447000C9447000C9447000C94470010
S11300500C94470011241FBECFE5D8E0DEBFCDBF0E
S113006010E0A0E6B0E0E8EDF5E002C005900D92E6
S1130070A439B107D9F720E0A4E9B0E001C01D928A
S1130080A539B207E1F70E948F010C94EA020C949F
S1130090000080FF02C0AC9A01C0AC9881FF02C08E
S11300A0AD9A01C0AD9882FF02C0AE9A01C0AE986D
S11300B083FF02C0AF9A0895AF980895CF93C82FD5
S11300C0A998AB9882958F700E944900AB9A8FECE7
S11300D097E00197F1F700C00000AB988FEC97E030
S11300E00197F1F700C000008C2F8F700E94490027
S11300F0AB9A8FEC97E00197F1F700C00000AB9842
S11301008FE99FE00197F1F700C00000CF910895B7
S113011081E00E945E00089580E00E9449008FE91A
S11301209CE80197F1F700C0000083E30E945E00A1
S113013082E30E945E0088E20E945E0088E20E94E0
S11301405E0086E00E945E008CE00E945E0081E01A
S11301500E945E000895CF93C82FA99AAB98829508
S11301608F700E944900AB9A87EC90E00197F1F7F9
S113017000C00000AB9887EC90E00197F1F700C055
S113018000008C2F8F700E944900AB9A87EC90E09E
S11301900197F1F700C00000AB9887EC90E001975D
S11301A0F1F700C00000CF910895CF93DF93EC01E5
S11301B08881882331F021960E94AB0089918111B6
S11301C0FBCFDF91CF910895CF93DF93EC0121967C
S11301D0FC018081882329F00E94AB008991811160
S11301E0FBCFDF91CF9108954F925F926F927F92F0
S11301F08F929F92AF92BF92EF92FF920F931F93B1
S1130200CF93DF93CDB7DEB72A970FB6F894DEBF4E
S11302100FBECDBF4B015C017A010E9445029F775E
S11302200E941202FE0131962AE0DF011D922A95F6
S1130230E9F76115710581059105D1F08E01055F1E
S11302401F4F0F2EFAE04F2E512C612C712CF02DE4
S1130250A30192010E94A902F80162938F01622F07
S1130260732F842F952F611571058105910581F7F1
S1130270FFEFEF16FF0669F4898181110FC0FE01BB
S1130280329600E010E00F5F1F4F81918823D9F36D
S113029007C00AE010E00E191F0902C000E010E0D8
S11302A0BB201CF48DE20E94AB000A3011059CF4C3
S11302B081E090E08C0F9D1F080F191F7E019BE0C9
S11302C0E90EF11CD8018D918D01805D0E94AB0077
S11302D00E151F05B9F72A960FB6F894DEBF0FBEA8
S11302E0CDBFDF91CF911F910F91FF90EF90BF9001
S11302F0AF909F908F907F906F905F904F900895F4
S11303001F920F920FB60F9211248F9381E0809366
S113031094008F910F900FBE0F901F9018958FEF40
S113032084BB81E087BB0E948C008BB780648BBF49
S113033084B784BF85B7836085BF80E48ABF81E8C2
S11303400E945E0082E690E00E94D5002FEF89E6CD
S113035098E1215080409040E1F700C000000E94E5
S1130360880080E80E945E0081E790E00E94D5004A
S11303707894C0E480919400882309F43FC0F894F1
S11303808091600090916100019790936100809347
S1130390600085E80E945E006091600070916100D9
S11303A0882777FD8095982F42E050E00E94F40062
S11303B080EC0E945E008CE790E00E94E400C09A0A
S11303C02FE78AE196E0215080409040E1F700C099
S11303D00000C0982FE789EB9AE2215080409040BA
S11303E0E1F700C0000080EC0E945E0085E890E028
S11303F00E94E40010929400CABF78948091600037
S113040090916100181619060CF4B4CFC09A0E949A
S1130410880080E80E945E008EE890E00E94D5008B
S1130420F894FFCF04D06894B1118DC0089570D0B2
S113043088F09F5790F0B92F9927B751A0F0D1F0C9
S1130440660F771F881F991F1AF0BA95C9F712C053
S1130450B13081F077D0B1E0089574C0672F782F60
S11304608827B85F39F0B93FCCF3869577956795BF
S1130470B395D9F73EF490958095709561957F4F2B
S11304808F4F9F4F0895E89409C097FB3EF49095D1
S11304908095709561957F4F8F4F9F4F9923A9F059
S11304A0F92F96E9BB279395F695879577956795E8
S11304B0B795F111F8CFFAF4BB0F11F460FF1BC02C
S11304C06F5F7F4F8F4F9F4F16C0882311F096E9BF
S11304D011C0772321F09EE8872F762F05C066236D
S11304E071F096E8862F70E060E02AF09A95660F26
S11304F0771F881FDAF7880F9695879597F90895DF
S113050057FD9058440F551F59F05F3F71F04795C0
S1130510880F97FB991F61F09F3F79F087950895A5
S1130520121613061406551FF2CF4695F1DF08C0C4
S1130530161617061806991FF1CF869571056105E1
S113054008940895E894BB2766277727CB0197F989
S11305500895052E97FB1EF400940E94C00257FDD7
S113056007D00E94C80207FC03D04EF40C94C002CA
S113057050954095309521953F4F4F4F5F4F0895CB
S113058090958095709561957F4F8F4F9F4F0895FB
S1130590A1E21A2EAA1BBB1BFD010DC0AA1FBB1F83
S11305A0EE1FFF1FA217B307E407F50720F0A21BF5
S11305B0B30BE40BF50B661F771F881F991F1A9462
S11305C069F760957095809590959B01AC01BD018C
S10B05D0CF010895F894FFCF58
S11305D80A004C41534552205441472047414D4558
S11305E8004C4946452031302F31300044495341AD
S11305F8424C45440020202020202020200044454F
S10706084144000065
S9030000FC
