:100000000C942A000C9449000C9458000C9467003E
:100010000C9447000C9447000C9447000C949D00EE
:100020000C9447000C9447000C9447000C94470034
:100030000C9447000C9447000C9447000C94470024
:100040000C9447000C9447000C9447000C94470014
:100050000C94470011241FBECFE5D8E0DEBFCDBF12
:1000600010E0A0E6B0E0ECEDF2E002C005900D92E9
:10007000A236B107D9F720E0A2E6B0E001C01D9298
:10008000A436B207E1F70E94B7000C946C010C94FF
:1000900000001F920F920FB60F9211248F9381E0F0
:1000A000809363008F910F900FBE0F901F90189553
:1000B0001F920F920FB60F9211248F9382E08093BC
:1000C00063008F910F900FBE0F901F9018951F9295
:1000D0000F920FB60F9211242F938F939F9383E06B
:1000E000809363008091600081111FC0C09A2FEF40
:1000F00080E792E0215080409040E1F700C000008E
:10010000C0982FE788E391E0215080409040E1F7CC
:1001100000C00000C09A2FEF80E792E0215080409D
:100120009040E1F700C00000C0989F918F912F91FF
:100130000F900FBE0F901F9018951F920F920FB641
:100140000F9211248F9380916200882329F0949854
:10015000959A1092620005C09598949A81E08093D8
:1001600062008F910F900FBE0F901F90189581E045
:1001700087BB83E084BB80EF81BB1FBC8DE08EBD5D
:1001800083E49FE09BBD8ABD8BB7806E8BBF84B735
:100190008F7B84BF85B78A6085BF85EC8ABF80E18D
:1001A00089BF789491E0809163008130D1F5C09A45
:1001B000969A109260002FEF31EE84E0215030408B
:1001C0008040E1F700C00000C0982FE738E381E0ED
:1001D000215030408040E1F700C00000A99A2FE78D
:1001E0003AE186E0215030408040E1F700C0000055
:1001F000A9982FE732EC87E6215030408040E1F7A4
:1002000000C00000909360002FE73AE186E02150A3
:1002100030408040E1F700C00000969810926300E3
:1002200056C08230D1F5C09A969A109260002FEF96
:1002300031EE84E0215030408040E1F700C0000002
:10024000C0982FE738E381E0215030408040E1F74B
:1002500000C00000A99A2FE73AE186E02150304023
:100260008040E1F700C00000A9982FE734ED81EE4F
:10027000215030408040E1F700C0000090936000C2
:100280002FE73AE186E0215030408040E1F700C09E
:1002900000009698109263001AC08330C1F4109247
:1002A0006300979AA89A2FEF31EE84E021503040F6
:1002B0008040E1F700C0000097982FE738E381E025
:1002C000215030408040E1F700C00000A8982AE1AA
:0C02D0002A95F1F700C067CFF894FFCF2B
:0202DC0001001F
:00000001FF
